{
	"data": {
		"bytecode": {
			"linkReferences": {},
			"object": "60806040526000600155600060025534801561001a57600080fd5b506110b58061002a6000396000f3fe608060405234801561001057600080fd5b506004361061004c5760003560e01c8063a3e42b9d14610051578063b26d0dc71461008b578063b4e0df4d146100a9578063b9a03dce146100c7575b600080fd5b61006b60048036038101906100669190610b6e565b6100e3565b6040516100829b9a99989796959493929190610ca2565b60405180910390f35b610093610412565b6040516100a09190610c87565b60405180910390f35b6100b1610418565b6040516100be9190610c87565b60405180910390f35b6100e160048036038101906100dc9190610a2c565b61041e565b005b600360205280600052604060002060009150905080600001549080600101805461010c90610e6c565b80601f016020809104026020016040519081016040528092919081815260200182805461013890610e6c565b80156101855780601f1061015a57610100808354040283529160200191610185565b820191906000526020600020905b81548152906001019060200180831161016857829003601f168201915b5050505050908060020154908060030180546101a090610e6c565b80601f01602080910402602001604051908101604052809291908181526020018280546101cc90610e6c565b80156102195780601f106101ee57610100808354040283529160200191610219565b820191906000526020600020905b8154815290600101906020018083116101fc57829003601f168201915b50505050509080600401805461022e90610e6c565b80601f016020809104026020016040519081016040528092919081815260200182805461025a90610e6c565b80156102a75780601f1061027c576101008083540402835291602001916102a7565b820191906000526020600020905b81548152906001019060200180831161028a57829003601f168201915b5050505050908060050154908060060180546102c290610e6c565b80601f01602080910402602001604051908101604052809291908181526020018280546102ee90610e6c565b801561033b5780601f106103105761010080835404028352916020019161033b565b820191906000526020600020905b81548152906001019060200180831161031e57829003601f168201915b5050505050908060070160009054906101000a900460ff169080600801549080600901805461036990610e6c565b80601f016020809104026020016040519081016040528092919081815260200182805461039590610e6c565b80156103e25780601f106103b7576101008083540402835291602001916103e2565b820191906000526020600020905b8154815290600101906020018083116103c557829003601f168201915b50505050509080600a0160009054906101000a900473ffffffffffffffffffffffffffffffffffffffff1690508b565b60025481565b60015481565b600073ffffffffffffffffffffffffffffffffffffffff163373ffffffffffffffffffffffffffffffffffffffff16141561045857600080fd5b6001600081548092919061046b90610ecf565b91905055506002600081548092919061048390610ecf565b9190505550600060019050601283116104d1576040517f08c379a00000000000000000000000000000000000000000000000000000000081526004016104c890610c47565b60405180910390fd5b601283116104df57506108fa565b6040518060400160405280600681526020017f43616e636572000000000000000000000000000000000000000000000000000081525080519060200120868051906020012014610564576040517f08c379a000000000000000000000000000000000000000000000000000000000815260040161055b90610c67565b60405180910390fd5b6040518060400160405280600681526020017f43616e6365720000000000000000000000000000000000000000000000000000815250805190602001208680519060200120146105b457506108fa565b60405180610160016040528060015481526020018a81526020018881526020018981526020018781526020018481526020018581526020018215158152602001868152602001838152602001600073ffffffffffffffffffffffffffffffffffffffff16815250600360006001548152602001908152602001600020600082015181600001556020820151816001019080519060200190610656929190610904565b5060408201518160020155606082015181600301908051906020019061067d929190610904565b50608082015181600401908051906020019061069a929190610904565b5060a0820151816005015560c08201518160060190805190602001906106c1929190610904565b5060e08201518160070160006101000a81548160ff021916908315150217905550610100820151816008015561012082015181600901908051906020019061070a929190610904565b5061014082015181600a0160006101000a81548173ffffffffffffffffffffffffffffffffffffffff021916908373ffffffffffffffffffffffffffffffffffffffff16021790555090505060405180610160016040528060015481526020018a81526020018881526020018981526020018781526020018481526020018581526020018215158152602001868152602001838152602001600073ffffffffffffffffffffffffffffffffffffffff168152506003600060025481526020019081526020016000206000820151816000015560208201518160010190805190602001906107f8929190610904565b5060408201518160020155606082015181600301908051906020019061081f929190610904565b50608082015181600401908051906020019061083c929190610904565b5060a0820151816005015560c0820151816006019080519060200190610863929190610904565b5060e08201518160070160006101000a81548160ff02191690831515021790555061010082015181600801556101208201518160090190805190602001906108ac929190610904565b5061014082015181600a0160006101000a81548173ffffffffffffffffffffffffffffffffffffffff021916908373ffffffffffffffffffffffffffffffffffffffff160217905550905050505b5050505050505050565b82805461091090610e6c565b90600052602060002090601f0160209004810192826109325760008555610979565b82601f1061094b57805160ff1916838001178555610979565b82800160010185558215610979579182015b8281111561097857825182559160200191906001019061095d565b5b509050610986919061098a565b5090565b5b808211156109a357600081600090555060010161098b565b5090565b60006109ba6109b584610d95565b610d70565b9050828152602081018484840111156109d6576109d5610faa565b5b6109e1848285610e2a565b509392505050565b600082601f8301126109fe576109fd610fa5565b5b8135610a0e8482602086016109a7565b91505092915050565b600081359050610a2681611068565b92915050565b600080600080600080600080610100898b031215610a4d57610a4c610fb4565b5b600089013567ffffffffffffffff811115610a6b57610a6a610faf565b5b610a778b828c016109e9565b985050602089013567ffffffffffffffff811115610a9857610a97610faf565b5b610aa48b828c016109e9565b9750506040610ab58b828c01610a17565b965050606089013567ffffffffffffffff811115610ad657610ad5610faf565b5b610ae28b828c016109e9565b9550506080610af38b828c01610a17565b94505060a089013567ffffffffffffffff811115610b1457610b13610faf565b5b610b208b828c016109e9565b93505060c0610b318b828c01610a17565b92505060e089013567ffffffffffffffff811115610b5257610b51610faf565b5b610b5e8b828c016109e9565b9150509295985092959890939650565b600060208284031215610b8457610b83610fb4565b5b6000610b9284828501610a17565b91505092915050565b610ba481610de2565b82525050565b610bb381610df4565b82525050565b6000610bc482610dc6565b610bce8185610dd1565b9350610bde818560208601610e39565b610be781610fb9565b840191505092915050565b6000610bff602b83610dd1565b9150610c0a82610fca565b604082019050919050565b6000610c22602d83610dd1565b9150610c2d82611019565b604082019050919050565b610c4181610e20565b82525050565b60006020820190508181036000830152610c6081610bf2565b9050919050565b60006020820190508181036000830152610c8081610c15565b9050919050565b6000602082019050610c9c6000830184610c38565b92915050565b600061016082019050610cb8600083018e610c38565b8181036020830152610cca818d610bb9565b9050610cd9604083018c610c38565b8181036060830152610ceb818b610bb9565b90508181036080830152610cff818a610bb9565b9050610d0e60a0830189610c38565b81810360c0830152610d208188610bb9565b9050610d2f60e0830187610baa565b610d3d610100830186610c38565b818103610120830152610d508185610bb9565b9050610d60610140830184610b9b565b9c9b505050505050505050505050565b6000610d7a610d8b565b9050610d868282610e9e565b919050565b6000604051905090565b600067ffffffffffffffff821115610db057610daf610f76565b5b610db982610fb9565b9050602081019050919050565b600081519050919050565b600082825260208201905092915050565b6000610ded82610e00565b9050919050565b60008115159050919050565b600073ffffffffffffffffffffffffffffffffffffffff82169050919050565b6000819050919050565b82818337600083830152505050565b60005b83811015610e57578082015181840152602081019050610e3c565b83811115610e66576000848401525b50505050565b60006002820490506001821680610e8457607f821691505b60208210811415610e9857610e97610f47565b5b50919050565b610ea782610fb9565b810181811067ffffffffffffffff82111715610ec657610ec5610f76565b5b80604052505050565b6000610eda82610e20565b91507fffffffffffffffffffffffffffffffffffffffffffffffffffffffffffffffff821415610f0d57610f0c610f18565b5b600182019050919050565b7f4e487b7100000000000000000000000000000000000000000000000000000000600052601160045260246000fd5b7f4e487b7100000000000000000000000000000000000000000000000000000000600052602260045260246000fd5b7f4e487b7100000000000000000000000000000000000000000000000000000000600052604160045260246000fd5b600080fd5b600080fd5b600080fd5b600080fd5b6000601f19601f8301169050919050565b7f50617469656e7420697320657870656374656420746f206265206f766572203160008201527f38207965617273206f6c64000000000000000000000000000000000000000000602082015250565b7f506c6561736520726566657220746f20616e6f74686572206465706172746d6560008201527f6e742e205468616e6b20796f7500000000000000000000000000000000000000602082015250565b61107181610e20565b811461107c57600080fd5b5056fea26469706673582212208fa4b0e70ec0d5bf6249690a3c963d90f91d19ae2444c33e463c963511436fc264736f6c63430008060033",
			"opcodes": "PUSH1 0x80 PUSH1 0x40 MSTORE PUSH1 0x0 PUSH1 0x1 SSTORE PUSH1 0x0 PUSH1 0x2 SSTORE CALLVALUE DUP1 ISZERO PUSH2 0x1A JUMPI PUSH1 0x0 DUP1 REVERT JUMPDEST POP PUSH2 0x10B5 DUP1 PUSH2 0x2A PUSH1 0x0 CODECOPY PUSH1 0x0 RETURN INVALID PUSH1 0x80 PUSH1 0x40 MSTORE CALLVALUE DUP1 ISZERO PUSH2 0x10 JUMPI PUSH1 0x0 DUP1 REVERT JUMPDEST POP PUSH1 0x4 CALLDATASIZE LT PUSH2 0x4C JUMPI PUSH1 0x0 CALLDATALOAD PUSH1 0xE0 SHR DUP1 PUSH4 0xA3E42B9D EQ PUSH2 0x51 JUMPI DUP1 PUSH4 0xB26D0DC7 EQ PUSH2 0x8B JUMPI DUP1 PUSH4 0xB4E0DF4D EQ PUSH2 0xA9 JUMPI DUP1 PUSH4 0xB9A03DCE EQ PUSH2 0xC7 JUMPI JUMPDEST PUSH1 0x0 DUP1 REVERT JUMPDEST PUSH2 0x6B PUSH1 0x4 DUP1 CALLDATASIZE SUB DUP2 ADD SWAP1 PUSH2 0x66 SWAP2 SWAP1 PUSH2 0xB6E JUMP JUMPDEST PUSH2 0xE3 JUMP JUMPDEST PUSH1 0x40 MLOAD PUSH2 0x82 SWAP12 SWAP11 SWAP10 SWAP9 SWAP8 SWAP7 SWAP6 SWAP5 SWAP4 SWAP3 SWAP2 SWAP1 PUSH2 0xCA2 JUMP JUMPDEST PUSH1 0x40 MLOAD DUP1 SWAP2 SUB SWAP1 RETURN JUMPDEST PUSH2 0x93 PUSH2 0x412 JUMP JUMPDEST PUSH1 0x40 MLOAD PUSH2 0xA0 SWAP2 SWAP1 PUSH2 0xC87 JUMP JUMPDEST PUSH1 0x40 MLOAD DUP1 SWAP2 SUB SWAP1 RETURN JUMPDEST PUSH2 0xB1 PUSH2 0x418 JUMP JUMPDEST PUSH1 0x40 MLOAD PUSH2 0xBE SWAP2 SWAP1 PUSH2 0xC87 JUMP JUMPDEST PUSH1 0x40 MLOAD DUP1 SWAP2 SUB SWAP1 RETURN JUMPDEST PUSH2 0xE1 PUSH1 0x4 DUP1 CALLDATASIZE SUB DUP2 ADD SWAP1 PUSH2 0xDC SWAP2 SWAP1 PUSH2 0xA2C JUMP JUMPDEST PUSH2 0x41E JUMP JUMPDEST STOP JUMPDEST PUSH1 0x3 PUSH1 0x20 MSTORE DUP1 PUSH1 0x0 MSTORE PUSH1 0x40 PUSH1 0x0 KECCAK256 PUSH1 0x0 SWAP2 POP SWAP1 POP DUP1 PUSH1 0x0 ADD SLOAD SWAP1 DUP1 PUSH1 0x1 ADD DUP1 SLOAD PUSH2 0x10C SWAP1 PUSH2 0xE6C JUMP JUMPDEST DUP1 PUSH1 0x1F ADD PUSH1 0x20 DUP1 SWAP2 DIV MUL PUSH1 0x20 ADD PUSH1 0x40 MLOAD SWAP1 DUP2 ADD PUSH1 0x40 MSTORE DUP1 SWAP3 SWAP2 SWAP1 DUP2 DUP2 MSTORE PUSH1 0x20 ADD DUP3 DUP1 SLOAD PUSH2 0x138 SWAP1 PUSH2 0xE6C JUMP JUMPDEST DUP1 ISZERO PUSH2 0x185 JUMPI DUP1 PUSH1 0x1F LT PUSH2 0x15A JUMPI PUSH2 0x100 DUP1 DUP4 SLOAD DIV MUL DUP4 MSTORE SWAP2 PUSH1 0x20 ADD SWAP2 PUSH2 0x185 JUMP JUMPDEST DUP3 ADD SWAP2 SWAP1 PUSH1 0x0 MSTORE PUSH1 0x20 PUSH1 0x0 KECCAK256 SWAP1 JUMPDEST DUP2 SLOAD DUP2 MSTORE SWAP1 PUSH1 0x1 ADD SWAP1 PUSH1 0x20 ADD DUP1 DUP4 GT PUSH2 0x168 JUMPI DUP3 SWAP1 SUB PUSH1 0x1F AND DUP3 ADD SWAP2 JUMPDEST POP POP POP POP POP SWAP1 DUP1 PUSH1 0x2 ADD SLOAD SWAP1 DUP1 PUSH1 0x3 ADD DUP1 SLOAD PUSH2 0x1A0 SWAP1 PUSH2 0xE6C JUMP JUMPDEST DUP1 PUSH1 0x1F ADD PUSH1 0x20 DUP1 SWAP2 DIV MUL PUSH1 0x20 ADD PUSH1 0x40 MLOAD SWAP1 DUP2 ADD PUSH1 0x40 MSTORE DUP1 SWAP3 SWAP2 SWAP1 DUP2 DUP2 MSTORE PUSH1 0x20 ADD DUP3 DUP1 SLOAD PUSH2 0x1CC SWAP1 PUSH2 0xE6C JUMP JUMPDEST DUP1 ISZERO PUSH2 0x219 JUMPI DUP1 PUSH1 0x1F LT PUSH2 0x1EE JUMPI PUSH2 0x100 DUP1 DUP4 SLOAD DIV MUL DUP4 MSTORE SWAP2 PUSH1 0x20 ADD SWAP2 PUSH2 0x219 JUMP JUMPDEST DUP3 ADD SWAP2 SWAP1 PUSH1 0x0 MSTORE PUSH1 0x20 PUSH1 0x0 KECCAK256 SWAP1 JUMPDEST DUP2 SLOAD DUP2 MSTORE SWAP1 PUSH1 0x1 ADD SWAP1 PUSH1 0x20 ADD DUP1 DUP4 GT PUSH2 0x1FC JUMPI DUP3 SWAP1 SUB PUSH1 0x1F AND DUP3 ADD SWAP2 JUMPDEST POP POP POP POP POP SWAP1 DUP1 PUSH1 0x4 ADD DUP1 SLOAD PUSH2 0x22E SWAP1 PUSH2 0xE6C JUMP JUMPDEST DUP1 PUSH1 0x1F ADD PUSH1 0x20 DUP1 SWAP2 DIV MUL PUSH1 0x20 ADD PUSH1 0x40 MLOAD SWAP1 DUP2 ADD PUSH1 0x40 MSTORE DUP1 SWAP3 SWAP2 SWAP1 DUP2 DUP2 MSTORE PUSH1 0x20 ADD DUP3 DUP1 SLOAD PUSH2 0x25A SWAP1 PUSH2 0xE6C JUMP JUMPDEST DUP1 ISZERO PUSH2 0x2A7 JUMPI DUP1 PUSH1 0x1F LT PUSH2 0x27C JUMPI PUSH2 0x100 DUP1 DUP4 SLOAD DIV MUL DUP4 MSTORE SWAP2 PUSH1 0x20 ADD SWAP2 PUSH2 0x2A7 JUMP JUMPDEST DUP3 ADD SWAP2 SWAP1 PUSH1 0x0 MSTORE PUSH1 0x20 PUSH1 0x0 KECCAK256 SWAP1 JUMPDEST DUP2 SLOAD DUP2 MSTORE SWAP1 PUSH1 0x1 ADD SWAP1 PUSH1 0x20 ADD DUP1 DUP4 GT PUSH2 0x28A JUMPI DUP3 SWAP1 SUB PUSH1 0x1F AND DUP3 ADD SWAP2 JUMPDEST POP POP POP POP POP SWAP1 DUP1 PUSH1 0x5 ADD SLOAD SWAP1 DUP1 PUSH1 0x6 ADD DUP1 SLOAD PUSH2 0x2C2 SWAP1 PUSH2 0xE6C JUMP JUMPDEST DUP1 PUSH1 0x1F ADD PUSH1 0x20 DUP1 SWAP2 DIV MUL PUSH1 0x20 ADD PUSH1 0x40 MLOAD SWAP1 DUP2 ADD PUSH1 0x40 MSTORE DUP1 SWAP3 SWAP2 SWAP1 DUP2 DUP2 MSTORE PUSH1 0x20 ADD DUP3 DUP1 SLOAD PUSH2 0x2EE SWAP1 PUSH2 0xE6C JUMP JUMPDEST DUP1 ISZERO PUSH2 0x33B JUMPI DUP1 PUSH1 0x1F LT PUSH2 0x310 JUMPI PUSH2 0x100 DUP1 DUP4 SLOAD DIV MUL DUP4 MSTORE SWAP2 PUSH1 0x20 ADD SWAP2 PUSH2 0x33B JUMP JUMPDEST DUP3 ADD SWAP2 SWAP1 PUSH1 0x0 MSTORE PUSH1 0x20 PUSH1 0x0 KECCAK256 SWAP1 JUMPDEST DUP2 SLOAD DUP2 MSTORE SWAP1 PUSH1 0x1 ADD SWAP1 PUSH1 0x20 ADD DUP1 DUP4 GT PUSH2 0x31E JUMPI DUP3 SWAP1 SUB PUSH1 0x1F AND DUP3 ADD SWAP2 JUMPDEST POP POP POP POP POP SWAP1 DUP1 PUSH1 0x7 ADD PUSH1 0x0 SWAP1 SLOAD SWAP1 PUSH2 0x100 EXP SWAP1 DIV PUSH1 0xFF AND SWAP1 DUP1 PUSH1 0x8 ADD SLOAD SWAP1 DUP1 PUSH1 0x9 ADD DUP1 SLOAD PUSH2 0x369 SWAP1 PUSH2 0xE6C JUMP JUMPDEST DUP1 PUSH1 0x1F ADD PUSH1 0x20 DUP1 SWAP2 DIV MUL PUSH1 0x20 ADD PUSH1 0x40 MLOAD SWAP1 DUP2 ADD PUSH1 0x40 MSTORE DUP1 SWAP3 SWAP2 SWAP1 DUP2 DUP2 MSTORE PUSH1 0x20 ADD DUP3 DUP1 SLOAD PUSH2 0x395 SWAP1 PUSH2 0xE6C JUMP JUMPDEST DUP1 ISZERO PUSH2 0x3E2 JUMPI DUP1 PUSH1 0x1F LT PUSH2 0x3B7 JUMPI PUSH2 0x100 DUP1 DUP4 SLOAD DIV MUL DUP4 MSTORE SWAP2 PUSH1 0x20 ADD SWAP2 PUSH2 0x3E2 JUMP JUMPDEST DUP3 ADD SWAP2 SWAP1 PUSH1 0x0 MSTORE PUSH1 0x20 PUSH1 0x0 KECCAK256 SWAP1 JUMPDEST DUP2 SLOAD DUP2 MSTORE SWAP1 PUSH1 0x1 ADD SWAP1 PUSH1 0x20 ADD DUP1 DUP4 GT PUSH2 0x3C5 JUMPI DUP3 SWAP1 SUB PUSH1 0x1F AND DUP3 ADD SWAP2 JUMPDEST POP POP POP POP POP SWAP1 DUP1 PUSH1 0xA ADD PUSH1 0x0 SWAP1 SLOAD SWAP1 PUSH2 0x100 EXP SWAP1 DIV PUSH20 0xFFFFFFFFFFFFFFFFFFFFFFFFFFFFFFFFFFFFFFFF AND SWAP1 POP DUP12 JUMP JUMPDEST PUSH1 0x2 SLOAD DUP2 JUMP JUMPDEST PUSH1 0x1 SLOAD DUP2 JUMP JUMPDEST PUSH1 0x0 PUSH20 0xFFFFFFFFFFFFFFFFFFFFFFFFFFFFFFFFFFFFFFFF AND CALLER PUSH20 0xFFFFFFFFFFFFFFFFFFFFFFFFFFFFFFFFFFFFFFFF AND EQ ISZERO PUSH2 0x458 JUMPI PUSH1 0x0 DUP1 REVERT JUMPDEST PUSH1 0x1 PUSH1 0x0 DUP2 SLOAD DUP1 SWAP3 SWAP2 SWAP1 PUSH2 0x46B SWAP1 PUSH2 0xECF JUMP JUMPDEST SWAP2 SWAP1 POP SSTORE POP PUSH1 0x2 PUSH1 0x0 DUP2 SLOAD DUP1 SWAP3 SWAP2 SWAP1 PUSH2 0x483 SWAP1 PUSH2 0xECF JUMP JUMPDEST SWAP2 SWAP1 POP SSTORE POP PUSH1 0x0 PUSH1 0x1 SWAP1 POP PUSH1 0x12 DUP4 GT PUSH2 0x4D1 JUMPI PUSH1 0x40 MLOAD PUSH32 0x8C379A000000000000000000000000000000000000000000000000000000000 DUP2 MSTORE PUSH1 0x4 ADD PUSH2 0x4C8 SWAP1 PUSH2 0xC47 JUMP JUMPDEST PUSH1 0x40 MLOAD DUP1 SWAP2 SUB SWAP1 REVERT JUMPDEST PUSH1 0x12 DUP4 GT PUSH2 0x4DF JUMPI POP PUSH2 0x8FA JUMP JUMPDEST PUSH1 0x40 MLOAD DUP1 PUSH1 0x40 ADD PUSH1 0x40 MSTORE DUP1 PUSH1 0x6 DUP2 MSTORE PUSH1 0x20 ADD PUSH32 0x43616E6365720000000000000000000000000000000000000000000000000000 DUP2 MSTORE POP DUP1 MLOAD SWAP1 PUSH1 0x20 ADD KECCAK256 DUP7 DUP1 MLOAD SWAP1 PUSH1 0x20 ADD KECCAK256 EQ PUSH2 0x564 JUMPI PUSH1 0x40 MLOAD PUSH32 0x8C379A000000000000000000000000000000000000000000000000000000000 DUP2 MSTORE PUSH1 0x4 ADD PUSH2 0x55B SWAP1 PUSH2 0xC67 JUMP JUMPDEST PUSH1 0x40 MLOAD DUP1 SWAP2 SUB SWAP1 REVERT JUMPDEST PUSH1 0x40 MLOAD DUP1 PUSH1 0x40 ADD PUSH1 0x40 MSTORE DUP1 PUSH1 0x6 DUP2 MSTORE PUSH1 0x20 ADD PUSH32 0x43616E6365720000000000000000000000000000000000000000000000000000 DUP2 MSTORE POP DUP1 MLOAD SWAP1 PUSH1 0x20 ADD KECCAK256 DUP7 DUP1 MLOAD SWAP1 PUSH1 0x20 ADD KECCAK256 EQ PUSH2 0x5B4 JUMPI POP PUSH2 0x8FA JUMP JUMPDEST PUSH1 0x40 MLOAD DUP1 PUSH2 0x160 ADD PUSH1 0x40 MSTORE DUP1 PUSH1 0x1 SLOAD DUP2 MSTORE PUSH1 0x20 ADD DUP11 DUP2 MSTORE PUSH1 0x20 ADD DUP9 DUP2 MSTORE PUSH1 0x20 ADD DUP10 DUP2 MSTORE PUSH1 0x20 ADD DUP8 DUP2 MSTORE PUSH1 0x20 ADD DUP5 DUP2 MSTORE PUSH1 0x20 ADD DUP6 DUP2 MSTORE PUSH1 0x20 ADD DUP3 ISZERO ISZERO DUP2 MSTORE PUSH1 0x20 ADD DUP7 DUP2 MSTORE PUSH1 0x20 ADD DUP4 DUP2 MSTORE PUSH1 0x20 ADD PUSH1 0x0 PUSH20 0xFFFFFFFFFFFFFFFFFFFFFFFFFFFFFFFFFFFFFFFF AND DUP2 MSTORE POP PUSH1 0x3 PUSH1 0x0 PUSH1 0x1 SLOAD DUP2 MSTORE PUSH1 0x20 ADD SWAP1 DUP2 MSTORE PUSH1 0x20 ADD PUSH1 0x0 KECCAK256 PUSH1 0x0 DUP3 ADD MLOAD DUP2 PUSH1 0x0 ADD SSTORE PUSH1 0x20 DUP3 ADD MLOAD DUP2 PUSH1 0x1 ADD SWAP1 DUP1 MLOAD SWAP1 PUSH1 0x20 ADD SWAP1 PUSH2 0x656 SWAP3 SWAP2 SWAP1 PUSH2 0x904 JUMP JUMPDEST POP PUSH1 0x40 DUP3 ADD MLOAD DUP2 PUSH1 0x2 ADD SSTORE PUSH1 0x60 DUP3 ADD MLOAD DUP2 PUSH1 0x3 ADD SWAP1 DUP1 MLOAD SWAP1 PUSH1 0x20 ADD SWAP1 PUSH2 0x67D SWAP3 SWAP2 SWAP1 PUSH2 0x904 JUMP JUMPDEST POP PUSH1 0x80 DUP3 ADD MLOAD DUP2 PUSH1 0x4 ADD SWAP1 DUP1 MLOAD SWAP1 PUSH1 0x20 ADD SWAP1 PUSH2 0x69A SWAP3 SWAP2 SWAP1 PUSH2 0x904 JUMP JUMPDEST POP PUSH1 0xA0 DUP3 ADD MLOAD DUP2 PUSH1 0x5 ADD SSTORE PUSH1 0xC0 DUP3 ADD MLOAD DUP2 PUSH1 0x6 ADD SWAP1 DUP1 MLOAD SWAP1 PUSH1 0x20 ADD SWAP1 PUSH2 0x6C1 SWAP3 SWAP2 SWAP1 PUSH2 0x904 JUMP JUMPDEST POP PUSH1 0xE0 DUP3 ADD MLOAD DUP2 PUSH1 0x7 ADD PUSH1 0x0 PUSH2 0x100 EXP DUP2 SLOAD DUP2 PUSH1 0xFF MUL NOT AND SWAP1 DUP4 ISZERO ISZERO MUL OR SWAP1 SSTORE POP PUSH2 0x100 DUP3 ADD MLOAD DUP2 PUSH1 0x8 ADD SSTORE PUSH2 0x120 DUP3 ADD MLOAD DUP2 PUSH1 0x9 ADD SWAP1 DUP1 MLOAD SWAP1 PUSH1 0x20 ADD SWAP1 PUSH2 0x70A SWAP3 SWAP2 SWAP1 PUSH2 0x904 JUMP JUMPDEST POP PUSH2 0x140 DUP3 ADD MLOAD DUP2 PUSH1 0xA ADD PUSH1 0x0 PUSH2 0x100 EXP DUP2 SLOAD DUP2 PUSH20 0xFFFFFFFFFFFFFFFFFFFFFFFFFFFFFFFFFFFFFFFF MUL NOT AND SWAP1 DUP4 PUSH20 0xFFFFFFFFFFFFFFFFFFFFFFFFFFFFFFFFFFFFFFFF AND MUL OR SWAP1 SSTORE POP SWAP1 POP POP PUSH1 0x40 MLOAD DUP1 PUSH2 0x160 ADD PUSH1 0x40 MSTORE DUP1 PUSH1 0x1 SLOAD DUP2 MSTORE PUSH1 0x20 ADD DUP11 DUP2 MSTORE PUSH1 0x20 ADD DUP9 DUP2 MSTORE PUSH1 0x20 ADD DUP10 DUP2 MSTORE PUSH1 0x20 ADD DUP8 DUP2 MSTORE PUSH1 0x20 ADD DUP5 DUP2 MSTORE PUSH1 0x20 ADD DUP6 DUP2 MSTORE PUSH1 0x20 ADD DUP3 ISZERO ISZERO DUP2 MSTORE PUSH1 0x20 ADD DUP7 DUP2 MSTORE PUSH1 0x20 ADD DUP4 DUP2 MSTORE PUSH1 0x20 ADD PUSH1 0x0 PUSH20 0xFFFFFFFFFFFFFFFFFFFFFFFFFFFFFFFFFFFFFFFF AND DUP2 MSTORE POP PUSH1 0x3 PUSH1 0x0 PUSH1 0x2 SLOAD DUP2 MSTORE PUSH1 0x20 ADD SWAP1 DUP2 MSTORE PUSH1 0x20 ADD PUSH1 0x0 KECCAK256 PUSH1 0x0 DUP3 ADD MLOAD DUP2 PUSH1 0x0 ADD SSTORE PUSH1 0x20 DUP3 ADD MLOAD DUP2 PUSH1 0x1 ADD SWAP1 DUP1 MLOAD SWAP1 PUSH1 0x20 ADD SWAP1 PUSH2 0x7F8 SWAP3 SWAP2 SWAP1 PUSH2 0x904 JUMP JUMPDEST POP PUSH1 0x40 DUP3 ADD MLOAD DUP2 PUSH1 0x2 ADD SSTORE PUSH1 0x60 DUP3 ADD MLOAD DUP2 PUSH1 0x3 ADD SWAP1 DUP1 MLOAD SWAP1 PUSH1 0x20 ADD SWAP1 PUSH2 0x81F SWAP3 SWAP2 SWAP1 PUSH2 0x904 JUMP JUMPDEST POP PUSH1 0x80 DUP3 ADD MLOAD DUP2 PUSH1 0x4 ADD SWAP1 DUP1 MLOAD SWAP1 PUSH1 0x20 ADD SWAP1 PUSH2 0x83C SWAP3 SWAP2 SWAP1 PUSH2 0x904 JUMP JUMPDEST POP PUSH1 0xA0 DUP3 ADD MLOAD DUP2 PUSH1 0x5 ADD SSTORE PUSH1 0xC0 DUP3 ADD MLOAD DUP2 PUSH1 0x6 ADD SWAP1 DUP1 MLOAD SWAP1 PUSH1 0x20 ADD SWAP1 PUSH2 0x863 SWAP3 SWAP2 SWAP1 PUSH2 0x904 JUMP JUMPDEST POP PUSH1 0xE0 DUP3 ADD MLOAD DUP2 PUSH1 0x7 ADD PUSH1 0x0 PUSH2 0x100 EXP DUP2 SLOAD DUP2 PUSH1 0xFF MUL NOT AND SWAP1 DUP4 ISZERO ISZERO MUL OR SWAP1 SSTORE POP PUSH2 0x100 DUP3 ADD MLOAD DUP2 PUSH1 0x8 ADD SSTORE PUSH2 0x120 DUP3 ADD MLOAD DUP2 PUSH1 0x9 ADD SWAP1 DUP1 MLOAD SWAP1 PUSH1 0x20 ADD SWAP1 PUSH2 0x8AC SWAP3 SWAP2 SWAP1 PUSH2 0x904 JUMP JUMPDEST POP PUSH2 0x140 DUP3 ADD MLOAD DUP2 PUSH1 0xA ADD PUSH1 0x0 PUSH2 0x100 EXP DUP2 SLOAD DUP2 PUSH20 0xFFFFFFFFFFFFFFFFFFFFFFFFFFFFFFFFFFFFFFFF MUL NOT AND SWAP1 DUP4 PUSH20 0xFFFFFFFFFFFFFFFFFFFFFFFFFFFFFFFFFFFFFFFF AND MUL OR SWAP1 SSTORE POP SWAP1 POP POP POP JUMPDEST POP POP POP POP POP POP POP POP JUMP JUMPDEST DUP3 DUP1 SLOAD PUSH2 0x910 SWAP1 PUSH2 0xE6C JUMP JUMPDEST SWAP1 PUSH1 0x0 MSTORE PUSH1 0x20 PUSH1 0x0 KECCAK256 SWAP1 PUSH1 0x1F ADD PUSH1 0x20 SWAP1 DIV DUP2 ADD SWAP3 DUP3 PUSH2 0x932 JUMPI PUSH1 0x0 DUP6 SSTORE PUSH2 0x979 JUMP JUMPDEST DUP3 PUSH1 0x1F LT PUSH2 0x94B JUMPI DUP1 MLOAD PUSH1 0xFF NOT AND DUP4 DUP1 ADD OR DUP6 SSTORE PUSH2 0x979 JUMP JUMPDEST DUP3 DUP1 ADD PUSH1 0x1 ADD DUP6 SSTORE DUP3 ISZERO PUSH2 0x979 JUMPI SWAP2 DUP3 ADD JUMPDEST DUP3 DUP2 GT ISZERO PUSH2 0x978 JUMPI DUP3 MLOAD DUP3 SSTORE SWAP2 PUSH1 0x20 ADD SWAP2 SWAP1 PUSH1 0x1 ADD SWAP1 PUSH2 0x95D JUMP JUMPDEST JUMPDEST POP SWAP1 POP PUSH2 0x986 SWAP2 SWAP1 PUSH2 0x98A JUMP JUMPDEST POP SWAP1 JUMP JUMPDEST JUMPDEST DUP1 DUP3 GT ISZERO PUSH2 0x9A3 JUMPI PUSH1 0x0 DUP2 PUSH1 0x0 SWAP1 SSTORE POP PUSH1 0x1 ADD PUSH2 0x98B JUMP JUMPDEST POP SWAP1 JUMP JUMPDEST PUSH1 0x0 PUSH2 0x9BA PUSH2 0x9B5 DUP5 PUSH2 0xD95 JUMP JUMPDEST PUSH2 0xD70 JUMP JUMPDEST SWAP1 POP DUP3 DUP2 MSTORE PUSH1 0x20 DUP2 ADD DUP5 DUP5 DUP5 ADD GT ISZERO PUSH2 0x9D6 JUMPI PUSH2 0x9D5 PUSH2 0xFAA JUMP JUMPDEST JUMPDEST PUSH2 0x9E1 DUP5 DUP3 DUP6 PUSH2 0xE2A JUMP JUMPDEST POP SWAP4 SWAP3 POP POP POP JUMP JUMPDEST PUSH1 0x0 DUP3 PUSH1 0x1F DUP4 ADD SLT PUSH2 0x9FE JUMPI PUSH2 0x9FD PUSH2 0xFA5 JUMP JUMPDEST JUMPDEST DUP2 CALLDATALOAD PUSH2 0xA0E DUP5 DUP3 PUSH1 0x20 DUP7 ADD PUSH2 0x9A7 JUMP JUMPDEST SWAP2 POP POP SWAP3 SWAP2 POP POP JUMP JUMPDEST PUSH1 0x0 DUP2 CALLDATALOAD SWAP1 POP PUSH2 0xA26 DUP2 PUSH2 0x1068 JUMP JUMPDEST SWAP3 SWAP2 POP POP JUMP JUMPDEST PUSH1 0x0 DUP1 PUSH1 0x0 DUP1 PUSH1 0x0 DUP1 PUSH1 0x0 DUP1 PUSH2 0x100 DUP10 DUP12 SUB SLT ISZERO PUSH2 0xA4D JUMPI PUSH2 0xA4C PUSH2 0xFB4 JUMP JUMPDEST JUMPDEST PUSH1 0x0 DUP10 ADD CALLDATALOAD PUSH8 0xFFFFFFFFFFFFFFFF DUP2 GT ISZERO PUSH2 0xA6B JUMPI PUSH2 0xA6A PUSH2 0xFAF JUMP JUMPDEST JUMPDEST PUSH2 0xA77 DUP12 DUP3 DUP13 ADD PUSH2 0x9E9 JUMP JUMPDEST SWAP9 POP POP PUSH1 0x20 DUP10 ADD CALLDATALOAD PUSH8 0xFFFFFFFFFFFFFFFF DUP2 GT ISZERO PUSH2 0xA98 JUMPI PUSH2 0xA97 PUSH2 0xFAF JUMP JUMPDEST JUMPDEST PUSH2 0xAA4 DUP12 DUP3 DUP13 ADD PUSH2 0x9E9 JUMP JUMPDEST SWAP8 POP POP PUSH1 0x40 PUSH2 0xAB5 DUP12 DUP3 DUP13 ADD PUSH2 0xA17 JUMP JUMPDEST SWAP7 POP POP PUSH1 0x60 DUP10 ADD CALLDATALOAD PUSH8 0xFFFFFFFFFFFFFFFF DUP2 GT ISZERO PUSH2 0xAD6 JUMPI PUSH2 0xAD5 PUSH2 0xFAF JUMP JUMPDEST JUMPDEST PUSH2 0xAE2 DUP12 DUP3 DUP13 ADD PUSH2 0x9E9 JUMP JUMPDEST SWAP6 POP POP PUSH1 0x80 PUSH2 0xAF3 DUP12 DUP3 DUP13 ADD PUSH2 0xA17 JUMP JUMPDEST SWAP5 POP POP PUSH1 0xA0 DUP10 ADD CALLDATALOAD PUSH8 0xFFFFFFFFFFFFFFFF DUP2 GT ISZERO PUSH2 0xB14 JUMPI PUSH2 0xB13 PUSH2 0xFAF JUMP JUMPDEST JUMPDEST PUSH2 0xB20 DUP12 DUP3 DUP13 ADD PUSH2 0x9E9 JUMP JUMPDEST SWAP4 POP POP PUSH1 0xC0 PUSH2 0xB31 DUP12 DUP3 DUP13 ADD PUSH2 0xA17 JUMP JUMPDEST SWAP3 POP POP PUSH1 0xE0 DUP10 ADD CALLDATALOAD PUSH8 0xFFFFFFFFFFFFFFFF DUP2 GT ISZERO PUSH2 0xB52 JUMPI PUSH2 0xB51 PUSH2 0xFAF JUMP JUMPDEST JUMPDEST PUSH2 0xB5E DUP12 DUP3 DUP13 ADD PUSH2 0x9E9 JUMP JUMPDEST SWAP2 POP POP SWAP3 SWAP6 SWAP9 POP SWAP3 SWAP6 SWAP9 SWAP1 SWAP4 SWAP7 POP JUMP JUMPDEST PUSH1 0x0 PUSH1 0x20 DUP3 DUP5 SUB SLT ISZERO PUSH2 0xB84 JUMPI PUSH2 0xB83 PUSH2 0xFB4 JUMP JUMPDEST JUMPDEST PUSH1 0x0 PUSH2 0xB92 DUP5 DUP3 DUP6 ADD PUSH2 0xA17 JUMP JUMPDEST SWAP2 POP POP SWAP3 SWAP2 POP POP JUMP JUMPDEST PUSH2 0xBA4 DUP2 PUSH2 0xDE2 JUMP JUMPDEST DUP3 MSTORE POP POP JUMP JUMPDEST PUSH2 0xBB3 DUP2 PUSH2 0xDF4 JUMP JUMPDEST DUP3 MSTORE POP POP JUMP JUMPDEST PUSH1 0x0 PUSH2 0xBC4 DUP3 PUSH2 0xDC6 JUMP JUMPDEST PUSH2 0xBCE DUP2 DUP6 PUSH2 0xDD1 JUMP JUMPDEST SWAP4 POP PUSH2 0xBDE DUP2 DUP6 PUSH1 0x20 DUP7 ADD PUSH2 0xE39 JUMP JUMPDEST PUSH2 0xBE7 DUP2 PUSH2 0xFB9 JUMP JUMPDEST DUP5 ADD SWAP2 POP POP SWAP3 SWAP2 POP POP JUMP JUMPDEST PUSH1 0x0 PUSH2 0xBFF PUSH1 0x2B DUP4 PUSH2 0xDD1 JUMP JUMPDEST SWAP2 POP PUSH2 0xC0A DUP3 PUSH2 0xFCA JUMP JUMPDEST PUSH1 0x40 DUP3 ADD SWAP1 POP SWAP2 SWAP1 POP JUMP JUMPDEST PUSH1 0x0 PUSH2 0xC22 PUSH1 0x2D DUP4 PUSH2 0xDD1 JUMP JUMPDEST SWAP2 POP PUSH2 0xC2D DUP3 PUSH2 0x1019 JUMP JUMPDEST PUSH1 0x40 DUP3 ADD SWAP1 POP SWAP2 SWAP1 POP JUMP JUMPDEST PUSH2 0xC41 DUP2 PUSH2 0xE20 JUMP JUMPDEST DUP3 MSTORE POP POP JUMP JUMPDEST PUSH1 0x0 PUSH1 0x20 DUP3 ADD SWAP1 POP DUP2 DUP2 SUB PUSH1 0x0 DUP4 ADD MSTORE PUSH2 0xC60 DUP2 PUSH2 0xBF2 JUMP JUMPDEST SWAP1 POP SWAP2 SWAP1 POP JUMP JUMPDEST PUSH1 0x0 PUSH1 0x20 DUP3 ADD SWAP1 POP DUP2 DUP2 SUB PUSH1 0x0 DUP4 ADD MSTORE PUSH2 0xC80 DUP2 PUSH2 0xC15 JUMP JUMPDEST SWAP1 POP SWAP2 SWAP1 POP JUMP JUMPDEST PUSH1 0x0 PUSH1 0x20 DUP3 ADD SWAP1 POP PUSH2 0xC9C PUSH1 0x0 DUP4 ADD DUP5 PUSH2 0xC38 JUMP JUMPDEST SWAP3 SWAP2 POP POP JUMP JUMPDEST PUSH1 0x0 PUSH2 0x160 DUP3 ADD SWAP1 POP PUSH2 0xCB8 PUSH1 0x0 DUP4 ADD DUP15 PUSH2 0xC38 JUMP JUMPDEST DUP2 DUP2 SUB PUSH1 0x20 DUP4 ADD MSTORE PUSH2 0xCCA DUP2 DUP14 PUSH2 0xBB9 JUMP JUMPDEST SWAP1 POP PUSH2 0xCD9 PUSH1 0x40 DUP4 ADD DUP13 PUSH2 0xC38 JUMP JUMPDEST DUP2 DUP2 SUB PUSH1 0x60 DUP4 ADD MSTORE PUSH2 0xCEB DUP2 DUP12 PUSH2 0xBB9 JUMP JUMPDEST SWAP1 POP DUP2 DUP2 SUB PUSH1 0x80 DUP4 ADD MSTORE PUSH2 0xCFF DUP2 DUP11 PUSH2 0xBB9 JUMP JUMPDEST SWAP1 POP PUSH2 0xD0E PUSH1 0xA0 DUP4 ADD DUP10 PUSH2 0xC38 JUMP JUMPDEST DUP2 DUP2 SUB PUSH1 0xC0 DUP4 ADD MSTORE PUSH2 0xD20 DUP2 DUP9 PUSH2 0xBB9 JUMP JUMPDEST SWAP1 POP PUSH2 0xD2F PUSH1 0xE0 DUP4 ADD DUP8 PUSH2 0xBAA JUMP JUMPDEST PUSH2 0xD3D PUSH2 0x100 DUP4 ADD DUP7 PUSH2 0xC38 JUMP JUMPDEST DUP2 DUP2 SUB PUSH2 0x120 DUP4 ADD MSTORE PUSH2 0xD50 DUP2 DUP6 PUSH2 0xBB9 JUMP JUMPDEST SWAP1 POP PUSH2 0xD60 PUSH2 0x140 DUP4 ADD DUP5 PUSH2 0xB9B JUMP JUMPDEST SWAP13 SWAP12 POP POP POP POP POP POP POP POP POP POP POP POP JUMP JUMPDEST PUSH1 0x0 PUSH2 0xD7A PUSH2 0xD8B JUMP JUMPDEST SWAP1 POP PUSH2 0xD86 DUP3 DUP3 PUSH2 0xE9E JUMP JUMPDEST SWAP2 SWAP1 POP JUMP JUMPDEST PUSH1 0x0 PUSH1 0x40 MLOAD SWAP1 POP SWAP1 JUMP JUMPDEST PUSH1 0x0 PUSH8 0xFFFFFFFFFFFFFFFF DUP3 GT ISZERO PUSH2 0xDB0 JUMPI PUSH2 0xDAF PUSH2 0xF76 JUMP JUMPDEST JUMPDEST PUSH2 0xDB9 DUP3 PUSH2 0xFB9 JUMP JUMPDEST SWAP1 POP PUSH1 0x20 DUP2 ADD SWAP1 POP SWAP2 SWAP1 POP JUMP JUMPDEST PUSH1 0x0 DUP2 MLOAD SWAP1 POP SWAP2 SWAP1 POP JUMP JUMPDEST PUSH1 0x0 DUP3 DUP3 MSTORE PUSH1 0x20 DUP3 ADD SWAP1 POP SWAP3 SWAP2 POP POP JUMP JUMPDEST PUSH1 0x0 PUSH2 0xDED DUP3 PUSH2 0xE00 JUMP JUMPDEST SWAP1 POP SWAP2 SWAP1 POP JUMP JUMPDEST PUSH1 0x0 DUP2 ISZERO ISZERO SWAP1 POP SWAP2 SWAP1 POP JUMP JUMPDEST PUSH1 0x0 PUSH20 0xFFFFFFFFFFFFFFFFFFFFFFFFFFFFFFFFFFFFFFFF DUP3 AND SWAP1 POP SWAP2 SWAP1 POP JUMP JUMPDEST PUSH1 0x0 DUP2 SWAP1 POP SWAP2 SWAP1 POP JUMP JUMPDEST DUP3 DUP2 DUP4 CALLDATACOPY PUSH1 0x0 DUP4 DUP4 ADD MSTORE POP POP POP JUMP JUMPDEST PUSH1 0x0 JUMPDEST DUP4 DUP2 LT ISZERO PUSH2 0xE57 JUMPI DUP1 DUP3 ADD MLOAD DUP2 DUP5 ADD MSTORE PUSH1 0x20 DUP2 ADD SWAP1 POP PUSH2 0xE3C JUMP JUMPDEST DUP4 DUP2 GT ISZERO PUSH2 0xE66 JUMPI PUSH1 0x0 DUP5 DUP5 ADD MSTORE JUMPDEST POP POP POP POP JUMP JUMPDEST PUSH1 0x0 PUSH1 0x2 DUP3 DIV SWAP1 POP PUSH1 0x1 DUP3 AND DUP1 PUSH2 0xE84 JUMPI PUSH1 0x7F DUP3 AND SWAP2 POP JUMPDEST PUSH1 0x20 DUP3 LT DUP2 EQ ISZERO PUSH2 0xE98 JUMPI PUSH2 0xE97 PUSH2 0xF47 JUMP JUMPDEST JUMPDEST POP SWAP2 SWAP1 POP JUMP JUMPDEST PUSH2 0xEA7 DUP3 PUSH2 0xFB9 JUMP JUMPDEST DUP2 ADD DUP2 DUP2 LT PUSH8 0xFFFFFFFFFFFFFFFF DUP3 GT OR ISZERO PUSH2 0xEC6 JUMPI PUSH2 0xEC5 PUSH2 0xF76 JUMP JUMPDEST JUMPDEST DUP1 PUSH1 0x40 MSTORE POP POP POP JUMP JUMPDEST PUSH1 0x0 PUSH2 0xEDA DUP3 PUSH2 0xE20 JUMP JUMPDEST SWAP2 POP PUSH32 0xFFFFFFFFFFFFFFFFFFFFFFFFFFFFFFFFFFFFFFFFFFFFFFFFFFFFFFFFFFFFFFFF DUP3 EQ ISZERO PUSH2 0xF0D JUMPI PUSH2 0xF0C PUSH2 0xF18 JUMP JUMPDEST JUMPDEST PUSH1 0x1 DUP3 ADD SWAP1 POP SWAP2 SWAP1 POP JUMP JUMPDEST PUSH32 0x4E487B7100000000000000000000000000000000000000000000000000000000 PUSH1 0x0 MSTORE PUSH1 0x11 PUSH1 0x4 MSTORE PUSH1 0x24 PUSH1 0x0 REVERT JUMPDEST PUSH32 0x4E487B7100000000000000000000000000000000000000000000000000000000 PUSH1 0x0 MSTORE PUSH1 0x22 PUSH1 0x4 MSTORE PUSH1 0x24 PUSH1 0x0 REVERT JUMPDEST PUSH32 0x4E487B7100000000000000000000000000000000000000000000000000000000 PUSH1 0x0 MSTORE PUSH1 0x41 PUSH1 0x4 MSTORE PUSH1 0x24 PUSH1 0x0 REVERT JUMPDEST PUSH1 0x0 DUP1 REVERT JUMPDEST PUSH1 0x0 DUP1 REVERT JUMPDEST PUSH1 0x0 DUP1 REVERT JUMPDEST PUSH1 0x0 DUP1 REVERT JUMPDEST PUSH1 0x0 PUSH1 0x1F NOT PUSH1 0x1F DUP4 ADD AND SWAP1 POP SWAP2 SWAP1 POP JUMP JUMPDEST PUSH32 0x50617469656E7420697320657870656374656420746F206265206F7665722031 PUSH1 0x0 DUP3 ADD MSTORE PUSH32 0x38207965617273206F6C64000000000000000000000000000000000000000000 PUSH1 0x20 DUP3 ADD MSTORE POP JUMP JUMPDEST PUSH32 0x506C6561736520726566657220746F20616E6F74686572206465706172746D65 PUSH1 0x0 DUP3 ADD MSTORE PUSH32 0x6E742E205468616E6B20796F7500000000000000000000000000000000000000 PUSH1 0x20 DUP3 ADD MSTORE POP JUMP JUMPDEST PUSH2 0x1071 DUP2 PUSH2 0xE20 JUMP JUMPDEST DUP2 EQ PUSH2 0x107C JUMPI PUSH1 0x0 DUP1 REVERT JUMPDEST POP JUMP INVALID LOG2 PUSH5 0x6970667358 0x22 SLT KECCAK256 DUP16 LOG4 0xB0 0xE7 0xE 0xC0 0xD5 0xBF PUSH3 0x49690A EXTCODECOPY SWAP7 RETURNDATASIZE SWAP1 0xF9 SAR NOT 0xAE 0x24 DIFFICULTY 0xC3 RETURNDATACOPY CHAINID EXTCODECOPY SWAP7 CALLDATALOAD GT NUMBER PUSH16 0xC264736F6C6343000806003300000000 "
		},
		"gasEstimates": {
			"creation": {
				"codeDepositCost": "855400",
				"executionCost": "10902",
				"totalCost": "866302"
			},
			"external": {
				"Data_by_id(uint256)": "infinite",
				"addPatient(string,string,uint256,string,uint256,string,uint256,string)": "infinite",
				"no_of_doctor()": "2429",
				"no_of_patient()": "2451"
			}
		},
		"methodIdentifiers": {
			"Data_by_id(uint256)": "a3e42b9d",
			"addPatient(string,string,uint256,string,uint256,string,uint256,string)": "b9a03dce",
			"no_of_doctor()": "b26d0dc7",
			"no_of_patient()": "b4e0df4d"
		}
	},
	"abi": [
		{
			"inputs": [
				{
					"internalType": "uint256",
					"name": "",
					"type": "uint256"
				}
			],
			"name": "Data_by_id",
			"outputs": [
				{
					"internalType": "uint256",
					"name": "id",
					"type": "uint256"
				},
				{
					"internalType": "string",
					"name": "name",
					"type": "string"
				},
				{
					"internalType": "uint256",
					"name": "phoneNo",
					"type": "uint256"
				},
				{
					"internalType": "string",
					"name": "location",
					"type": "string"
				},
				{
					"internalType": "string",
					"name": "problem",
					"type": "string"
				},
				{
					"internalType": "uint256",
					"name": "age",
					"type": "uint256"
				},
				{
					"internalType": "string",
					"name": "doc",
					"type": "string"
				},
				{
					"internalType": "bool",
					"name": "vacant",
					"type": "bool"
				},
				{
					"internalType": "uint256",
					"name": "payment",
					"type": "uint256"
				},
				{
					"internalType": "string",
					"name": "date",
					"type": "string"
				},
				{
					"internalType": "address payable",
					"name": "patient",
					"type": "address"
				}
			],
			"stateMutability": "view",
			"type": "function"
		},
		{
			"inputs": [
				{
					"internalType": "string",
					"name": "_name",
					"type": "string"
				},
				{
					"internalType": "string",
					"name": "_location",
					"type": "string"
				},
				{
					"internalType": "uint256",
					"name": "_phoneNo",
					"type": "uint256"
				},
				{
					"internalType": "string",
					"name": "_problem",
					"type": "string"
				},
				{
					"internalType": "uint256",
					"name": "_payment",
					"type": "uint256"
				},
				{
					"internalType": "string",
					"name": "_doc",
					"type": "string"
				},
				{
					"internalType": "uint256",
					"name": "age",
					"type": "uint256"
				},
				{
					"internalType": "string",
					"name": "date",
					"type": "string"
				}
			],
			"name": "addPatient",
			"outputs": [],
			"stateMutability": "nonpayable",
			"type": "function"
		},
		{
			"inputs": [],
			"name": "no_of_doctor",
			"outputs": [
				{
					"internalType": "uint256",
					"name": "",
					"type": "uint256"
				}
			],
			"stateMutability": "view",
			"type": "function"
		},
		{
			"inputs": [],
			"name": "no_of_patient",
			"outputs": [
				{
					"internalType": "uint256",
					"name": "",
					"type": "uint256"
				}
			],
			"stateMutability": "view",
			"type": "function"
		}
	]
}